:020000040800F2
:100000002809002045010008CF050008C7050008A1
:10001000CB05000853020008990A00080000000000
:10002000000000000000000000000000AD07000814
:100030005702000800000000D10500085D0100081B
:100040005F0100085F0100085F0100085F01000810
:100050005F0100085F0100085F0100085F01000800
:100060005F0100085F0100085F0100085F010008F0
:100070005F0100085F0100085F0100085F010008E0
:100080005F0100085F0100085F0100085F010008D0
:100090005F0100085F0100085F010008F502000829
:1000A0005F0100085F0100085F0100085F010008B0
:1000B0005F0100085F0100085F0100085F010008A0
:1000C0005F0100085F0100085F0100085F01000890
:1000D0005F0100085F0100085F0100085F01000880
:1000E0005F0100085F0100085F0100085F01000870
:1000F0005F0100085F0100085F0100085F01000860
:100100005F0100085F0100085F0100085F0100084F
:100110005F0100085F0100085F0100085F0100083F
:100120005F0100085F0100085F0100085F0100082F
:10013000DFF80CD000F05CF80048004731190008E7
:10014000280900200648804706480047FEE7FEE7EA
:10015000FEE7FEE7FEE7FEE7FEE7FEE7FEE7FEE777
:100160009908000831010008D2B201E000F8012B23
:10017000491EFBD270470022F6E710B513460A4627
:1001800004461946FFF7F0FF204610BD2DE9F05F49
:100190000546002092469B468846064681464024F6
:1001A0001BE0284641464746224600F042F85346A7
:1001B0005A46C01A914110D311461846224600F003
:1001C00029F82D1A67EB01084F462246012000212D
:1001D00000F020F817EB00094E41201EA4F10104A5
:1001E000DFDC484631462A464346BDE8F09F000022
:1001F000064C074D06E0E06840F0010394E8070074
:1002000098471034AC42F6D3FFF796FF1825000844
:1002100038250008202A04DB203A00FA02F10020E9
:1002200070479140C2F1200320FA03F31943904034
:100230007047202A04DB203A21FA02F0002170479F
:1002400021FA02F3D040C2F120029140084319463E
:10025000704700BFFEE7704747E000BF00BF00BF28
:1002600000BF00BF00BF00BF00BF00BF00BF00BF96
:1002700000BF00BF00BF00BF00BF00BF00BF00BF86
:1002800000BF00BF00BF00BF00BF00BF00BF00BF76
:1002900000BF00BF00BF00BF00BF00BF00BF00BF66
:1002A00000BF00BF00BF00BF00BF00BF00BF00BF56
:1002B00000BF00BF00BF00BF00BF00BF00BF00BF46
:1002C00000BF00BF00BF00BF00BF00BF00BF00BF36
:1002D00000BF00BF00BF00BF00BF00BF00BF00BF26
:1002E00000BF00BF00BF00BF00BF011EA0F10100A2
:1002F000B3D1704710B54FF4807000F00DF80128AD
:1003000002D1000200F002F810BD000001490860AF
:100310007047000014040140014600200022074BF2
:100320001B6803EA0102054B14331B680B4013B131
:100330000AB1012000E000207047000000040140E5
:10034000002123498279002A3AD00A4612680368BC
:100350009A430B461A600A1D126803689A430B1DE4
:100360001A60027911440A6803681A430A60184A3D
:100370000832126803689A43154B08331A601A1D35
:10038000126803689A43124B0C331A604279102AA0
:100390000ED11A1F126803681A430D4B08331A60F6
:1003A0001A1D126803681A43094B0C331A600DE0DA
:1003B0000749427911440A6803681A430A6005E054
:1003C000027911440A6803689A430A607047000082
:1003D0000004014030B500228B071C0F0F2303FAE5
:1003E00004F20B4B8C1053F824309343084C8D10BF
:1003F00044F8253023468C1053F824308C07240F02
:1004000000FA04F42343024C8D1044F8253030BD2B
:10041000080001402DE9F041024600250026002099
:1004200000230024002791F803C00CF00F0591F879
:1004300003C00CF0100CBCF1000F03D091F802C007
:100440004CEA050591F800C0BCF1000F31D01468EA
:1004500000202BE04FF0010C0CFA00F3B1F800C0C3
:100460000CEA03069E4220D183004FF00F0C0CFAD9
:1004700003F7BC4305FA03FC4CEA040491F803C0FB
:10048000BCF1280F06D14FF0010C0CFA00FCC2F8A9
:1004900014C00AE091F803C0BCF1480F05D14FF039
:1004A000010C0CFA00FCC2F810C0401C0828D1D383
:1004B0001460B1F800C0BCF1FF0F34DD54680020B7
:1004C0002EE000F1080C4FF0010808FA0CF3B1F827
:1004D00000C00CEA03069E4221D183004FF00F0CAE
:1004E0000CFA03F7BC4305FA03FC4CEA040491F848
:1004F00003C0BCF1280F05D100F1080C08FA0CF874
:10050000C2F8148091F803C0BCF1480F07D100F184
:10051000080C4FF0010808FA0CF8C2F81080401CD3
:100520000828CED35460BDE8F0810000F0B50A463B
:10053000002300240021002500F00046B6F1004F02
:1005400002D11D4EF16901E01B4E7168C0F30345F5
:1005500083B200F44016B6F5401F08D121F0706157
:10056000154E766826F07066134F7E6012E000F438
:100570008016B6F5801F06D1032606FA05F4A143BE
:1005800041F0706106E0460D360103FA06F6B1430C
:1005900041F0706122B1460D360103FA06F631438F
:1005A00000F00046B6F1004F02D1034EF16101E0C8
:1005B000014E7160F0BD0000000001400AB1016110
:1005C00000E04161704700BFFEE700BFFEE77047F3
:1005D0007047000029B1064AD2690243044BDA6130
:1005E00004E0034AD2698243014BDA61704700009C
:1005F0000010024029B1064A92690243044B9A61F5
:1006000004E0034A92698243014B9A6170470000FB
:100610000010024030B500210022002400232D4D9F
:100620006D6805F00C0121B1042905D0082923D1FA
:1006300005E0294D056022E0274D05601FE0254DAE
:100640006D6805F47012234D6D6805F48034022541
:1006500005EB92421CB9214D554305600BE01D4D41
:100660006D6805F400351DB11C4D5543056002E071
:10067000194D5543056002E0174D056000BF00BFEE
:10068000144D6D6805F0F0010909154D6B5C0568A6
:10069000DD4045600F4D6D6805F4E061090A104DBD
:1006A0006B5C4568DD4085600A4D6D6805F46051FE
:1006B000C90A0B4D6B5C4568DD40C560054D6D6832
:1006C00005F44041890B074D6B5CC568B5FBF3F53C
:1006D000056130BD0010024000127A0000093D00A3
:1006E000000000201000002010B501221103024874
:1006F000FFF764FF10BD0000000C014010B50022A0
:100700004FF480510148FFF759FF10BD000C014024
:1007100021B1028842F04002028004E002884FF6D4
:10072000BF731A4002807047012080F3108800BF19
:100730007047002080F3108800BF704702460020F9
:1007400013890B400BB1012000E0002070470146E7
:10075000888970478181704710B50022028802F4B1
:1007600041520B884C8823438C882343CC882343F5
:100770000C8923434C8923438C892343CC8923430D
:100780001A430280838B4FF2FF74234083830B8ACA
:10079000038210BD0021018041808180C1800181E0
:1007A00041818181C181072101827047704710B565
:1007B00000F002F810BD00000CB500200190009080
:1007C0003348006840F480303149086000BF304849
:1007D000006800F4003000900198401C01900098DF
:1007E00018B90198B0F5A06FF1D12948006800F45C
:1007F000003010B10120009001E00020009000982E
:10080000012843D12348006840F0100021490860C6
:100810000846006820F0030008600846006840F0C1
:10082000020008601A484068194948600846406854
:1008300048600846406840F4806048600846406868
:1008400020F47C1048600846406840F4E810486096
:100850000846006840F08070086000BF0C480068DF
:1008600000F000700028F9D00948406820F003002B
:10087000074948600846406840F00200486000BFF1
:100880000348406800F00C000828F9D10CBD0000B6
:10089000001002400020024010B51348006840F0EC
:1008A00001001149086008464068104908400E4997
:1008B0004860084600680E4908400B490860084631
:1008C000006820F4802008600846406820F4FE009C
:1008D00048604FF41F008860FFF769FF4FF0006029
:1008E0000449086010BD0000001002400000FFF83D
:1008F000FFFFF6FE08ED00E021B1828942F40052CC
:10090000828104E082894DF6FF731A40828170472C
:1009100000B585B0002004900090019002900390F3
:1009200001210420FFF766FE01218803FFF762FE24
:1009300018208DF813004FF40070ADF8100003205C
:100940008DF8120004A91348FFF764FD04208DF808
:1009500013000002ADF8100004A90E48FFF75AFD7D
:100960004FF4165000900020ADF80C000C20ADF8AC
:100970000A000020ADF80800ADF80600ADF804004C
:100980006946054800F018F801210348FFF7B4FF55
:1009900005B000BD000801400038014002460020BB
:1009A000B1F5007F00D100BF13880B400BB10120CF
:1009B00000E00020704700002DE9F04786B00546B2
:1009C0000E460024A24600BFA1460027B08900B110
:1009D00000BF2F462C8A4CF6FF700440F088044379
:1009E0002C82AC894EF6F3100440B088318908435C
:1009F000718908430443AC81AC8A4FF6FF40044040
:100A0000B0890443AC8201A8FFF704FE1F48874267
:100A100002D1DDF810A001E0DDF80CA0A88900F4F7
:100A2000004040B10AEBCA0000EB0A1031684900EF
:100A3000B0FBF1F807E00AEBCA0000EB0A103168DE
:100A40008900B0FBF1F86420B8FBF0F00401200944
:100A5000642101FB1089A88900F4004040B13220D4
:100A600000EBC900B0FBF1F000F00700044308E020
:100A7000322000EB09106421B0FBF1F000F00F0010
:100A800004432C8106B0BDE8F08700000038014027
:100A9000C1F308028280704700BFFEE700B585B051
:100AA000002004900B4B0FCB8DE80F00694601200E
:100AB00000F034FE401C08B900BFFEE700BF04A9E7
:100AC0000F2000F02BFE9DF810000028F7D005B095
:100AD00000BD00000825000810B500F0B7F800F0D0
:100AE00073F910BD00B585B03249002000F0EEFD6D
:100AF0003049012000F0EAFD03A9082000F00EFEB5
:100B000003A92DA000F092FA2A481A38C07F29497B
:100B10001A39897F274A1A3A527FCDE9002102907B
:100B200024481A38037FC27E817E2AA000F07EFA14
:100B300020481A3890F8230000901E481A3890F880
:100B4000223090F8212090F820102CA000F06EFAAE
:100B500018481A3890F82B00009016481A3890F868
:100B60002A3090F8292090F8281029A000F05EFA89
:100B700010481A3890F8270000900E481A3890F85C
:100B8000263090F8252090F8241026A000F04EFA88
:100B900008481A3890F82F00009006481A3890F844
:100BA0002E3090F82D2090F82C1023A000F03EFA63
:100BB00005B000BD700000200D0A3D3D3D202573AD
:100BC00020534554204E455420434F4E46203D3D32
:100BD0003D0D0A004D41433A20253032583A253028
:100BE00032583A253032583A253032583A25303288
:100BF000583A253032580D0A000000005349503A47
:100C00002025642E25642E25642E25640D0A0000FF
:100C10004741523A2025642E25642E25642E2564F2
:100C20000D0A00005355423A2025642E25642E25D6
:100C3000642E25640D0A0000444E533A2025642E8C
:100C400025642E25642E25640D0A000010B588B099
:100C500001210846FFF7CEFC01210820FFF7CAFC5E
:100C600001212020FFF7C6FC01218803FFF7B2FC19
:100C700010208DF81F004001ADF81C0003208DF8F6
:100C80001E0007A93E48FFF7C5FB4FF48050ADF8A2
:100C90001C0007A93B48FFF7BDFB04208DF81F008F
:100CA0008001ADF81C0007A93548FFF7B3FB4FF4EE
:100CB0008040ADF81C0007A93248FFF7ABFB1820B5
:100CC0008DF81F004FF42040ADF81C0007A92D48F7
:100CD000FFF7A0FB08210320FFF77CFB4FF4807097
:100CE000009001208DF8060000208DF804000C20F3
:100CF0008DF805006846FFF723FB17200321002825
:100D000007DA0A07140E204A00F00F031B1FD45401
:100D100003E00A07130E1D4A135400BF17200121D8
:100D200081404209920002F1E022C2F8001100BFA6
:100D300002A8FFF72FFD0020ADF81400ADF8100059
:100D4000ADF80E00ADF80C00ADF80800ADF81600D7
:100D50004FF48270ADF80A004FF40070ADF8120045
:100D600002A90B48FFF7F8FC01210948FFF7D0FC66
:100D7000012251020248FFF721FC08B010BD00001B
:100D800000140140000C014018ED00E000E400E018
:100D90000038004010B500BF02210A48FFF7CEFC22
:100DA0000028F9D0FF210748FFF7D4FC00BF01213C
:100DB0000448FFF7C3FC0028F9D00248FFF7C7FC3E
:100DC000C0B210BD0038004010B50649064800F01A
:100DD000FFFE0649064800F00FFF0649064800F0EE
:100DE0001FFF10BD3307000829070008E9060008A7
:100DF000FD060008FD0D0008950D000810B504461D
:100E000000BF02210948FFF799FC0028F9D02146CC
:100E10000648FFF79FFC00BF01210448FFF78EFC46
:100E20000028F9D00148FFF792FC10BD00380040BF
:100E300038B504461A49C868804719494869804747
:100E400000BF1748406A10B11548806A70B914484D
:100E5000016AC4F3074088471148016AC4F30720B8
:100E60008847E0B20E4A116A88470DE0200C8DF8E1
:100E70000000200A8DF80100E0B28DF80200084859
:100E80000321826A684690470549C869804705463C
:100E9000034988698047024908698047284638BD68
:100EA00024000020F8B504460E4617461F49C868BE
:100EB00080471E494869804700BF1C48406A10B1FE
:100EC0001A48806AC0B91948016AC4F307408847C4
:100ED0001648016AC4F307208847E0B2134A116A32
:100EE0008847002505E01149C86980477055681C8E
:100EF00085B2BD42F7DB12E0200C8DF80000200A1D
:100F00008DF80100E0B28DF8020008480321826AE2
:100F10006846904705483946426A3046904703493B
:100F200088698047014908698047F8BD240000208E
:100F300038B504460D461A49C868804718494869BB
:100F4000804744F004041648806A90B91448016A46
:100F5000C4F3074088471248016AC4F30720884752
:100F6000E0B20F4A116A88470D48016A284688474F
:100F70000FE0200C8DF80000200A8DF80100E0B28F
:100F80008DF802008DF8035005480421826A6846F6
:100F9000904703498869804701490869804738BDFF
:100FA00024000020F8B504460E4617461E49C868BE
:100FB00080471D494869804744F004041A48806A04
:100FC000C0B91948016AC4F3074088471648016A46
:100FD000C4F307208847E0B2134A116A8847002506
:100FE00005E0705D104A116A8847681C85B2BD42F1
:100FF000F7DB12E0200C8DF80000200A8DF80100CC
:10100000E0B28DF8020008480321826A68469047E2
:1010100005483946826A30469047034988698047C7
:10102000014908698047F8BD240000200FB4054B32
:1010300010B503A9044A029800F018F810BC5DF836
:1010400014FB0000351800088C00002002E008C8DE
:10105000121F08C1002AFAD170477047002001E032
:1010600001C1121F002AFBD1704700002DE9FF4F7C
:101070008DB00F460546002606E025280BD0DDE999
:101080000F1290476D1C761C28780028F5D111B0FE
:101090003046BDE8F08F0024A246A1460122EC496B
:1010A00000E0044315F8013F203B02FA03F0084238
:1010B000F7D128782A2810D06FF02F022878A0F1D5
:1010C0003001092914D80AEB8A0102EB410144F0EE
:1010D000020400EB010A6D1CF0E701CF5FEA000A91
:1010E00003D544F40054CAF1000A44F002046D1C14
:1010F00028782E2817D115F8010F44F004042A2867
:101100000ED06FF02F022878A0F1300109290AD8FB
:1011100009EB890102EB410100EB01096D1CF2E7CB
:1011200057F8049B6D1C28786C280FD006DC4C28DF
:1011300017D068280DD06A2814D104E0742810D084
:101140007A280FD10DE044F400140AE044F480142E
:1011500001E044F440146978814202D104F580141E
:101160006D1C6D1C2A786E2A1FD00CDC632A31D0CE
:1011700004DC002A8BD0582A11D1A3E0642A68D05D
:10118000692A0CD165E0732A2ED004DC6F2A73D053
:10119000702A04D19BE0752A6FD0782A6ED0104651
:1011A000DDE90F129047761C50E1C4F3025002288B
:1011B00006D0032809D0042801CF09D0066045E1F4
:1011C00001CFF117C0E9006140E101CF06803DE1A8
:1011D00006703BE117F8040B8DF8000000208DF835
:1011E0000100EB46012003E057F804BB4FF0FF304D
:1011F00061074FF0000102D40DE008F101018846BB
:1012000049450FDA8045F8DB1BF808100029F4D1B6
:1012100008E008F1010188468142FADB1BF808105A
:101220000029F6D1DDE90F23AAEB0800814621460B
:1012300000F036F9304400EB080604E0DDE90F1257
:101240001BF8010B9047B8F10108F7D22146484638
:10125000F7E00A21C4F302534FF0000B0891022B70
:1012600004D001CFC117032B09D00AE0FF1D27F0DE
:101270000707F7E8020108E032E01FE020E000B2D3
:10128000C117042B01D140B2C117031E71F1000335
:1012900007DA4FF0000CD0EB0C006CEB01012D23B2
:1012A00002E0230504D52B238DF82430012303E02D
:1012B000E30701D02023F7E7984658E00A2110E021
:1012C00010210EE010204FF0000B08900CE01021D0
:1012D0004FF0000B44F004044FF00809089103E0BC
:1012E00008214FF0000B0891C4F30253022B04D0E5
:1012F00001CF0021032B06D006E0FF1D27F00707D2
:10130000F7E8020103E080B2042B00D1C0B24FF035
:10131000000823072BD5702A07D0DDF820C08CF0F9
:10132000100C5CEA0B0C05D00EE040238DF8243045
:10133000012308E050EA010306D030238DF8243061
:101340008DF8252002239846DDF820C08CF0080C8B
:101350005CEA0B0C0BD150EA010301D1630706D5FF
:1013600030238DF824304FF00108A9F10109582AE3
:1013700004D038A20B9208AA0A920BE03AA2F9E72D
:101380005B46089AFEF702FF0B9B9B5C0A9A521E73
:101390000A92137050EA0102F2D10A98ADEB0000F4
:1013A00000F1200B600702D524F4803401E04FF0F7
:1013B0000109D94502DDA9EB0B0000E0002000EB9C
:1013C0000B0141440890AAEB010AE00306D4DDE9D1
:1013D0000F232146504600F063F806444FF0000901
:1013E00008E009A911F80900DDE90F12904709F199
:1013F0000109761CC145F4DBE0030CD5DDE90F23C0
:101400002146504600F04CF8064404E0DDE90F1296
:1014100030209047761C0899481E08900029F5DC7A
:1014200008E00A980A990078491C0A91DDE90F1230
:101430009047761CBBF10001ABF1010BF1DC2146BA
:101440005046DDE90F2300F019F806446D1C1BE639
:10145000092801003031323334353637383961628A
:10146000636465660000000030313233343536374E
:101470003839414243444546000000002DE9F0411F
:10148000044600251E461746880404D405E0394664
:101490002020B0476D1C641EF9D52846BDE8F081B8
:1014A0002DE9F041044600251E469046C80301D5AB
:1014B000302700E02027880404D505E0414638465F
:1014C000B0476D1C641EF9D52846BDE8F0810000C8
:1014D00010B5044600BF082C02DD4FF0FF3010BDF0
:1014E00000BFA100491C4FF4807202EBC100102123
:1014F000FFF71EFD00BFA100491C4FF4807202EBF4
:10150000C100FFF795FC0028F5D1A100491C4FF45C
:10151000007202EBC1001F21FFF70AFD0120A0406D
:101520000F49098881430E4801800120A0400D49E0
:10153000098881430B48018000200B4921F81400E1
:101540000A49085500BFA100491C4FF4407202EB44
:10155000C100FFF76DFC0028F5D10120BFE70000B6
:101560001600002018000020900000201A00002023
:1015700070B504460D46164600BF082C02DD4FF03C
:10158000FF3070BD00BF00BFA100491C002202EB6C
:10159000C100FFF74DFC00F00F00012802D06FF0F2
:1015A0000400EEE700BF00BFA100491C4FF44072E9
:1015B00002EBC100FFF73CFC132802D06FF00200E1
:1015C000DFE700BF2978687861F31F200146A8781B
:1015D00061F31F200146E87861F31F200146481C93
:1015E00000B111B96FF00B00CBE716B96FF00A002C
:1015F000C7E7A100491C4FF4406202EBC10004227E
:101600002946FFF7CFFC3112A200521C4FF4805341
:1016100003EBC200FFF78CFCF1B2A200521C4FF4A6
:10162000805303EBC20202F58070FFF781FCA1003A
:10163000491C4FF4807202EBC1000421FFF778FCD3
:1016400000BFA100491C4FF4807202EBC100FFF7FC
:10165000EFFB0028F5D10120A0401B490988084074
:1016600008B100208DE722E0A100491C4FF4007270
:1016700002EBC100FFF7DCFB00F0080058B1A1004D
:10168000491C4FF4007202EBC1000821FFF750FC27
:101690006FF00C0075E7A100491C4FF4407202EB9B
:1016A000C100FFF7C5FB10B96FF0030069E7A100A7
:1016B000491C4FF4407202EBC100FFF7B9FB172839
:1016C000D2D101205DE700001600002070B505466C
:1016D0000C46062D1CD2DFE805F003070B0F13178D
:1016E000204600F0B3FD16E0204600F011FD12E0A8
:1016F000207800F0D7FD70BD00F038FD20700AE0C2
:10170000204600F0E2FD06E0204600F034FD02E055
:101710004FF0FF30EFE700BF0020ECE72DE9FC4180
:1017200006460C460025002000900190102E79D22C
:10173000DFE806F0080B1A161E2226323F515458D5
:101740005C5D616C00F0D7FD6FE01CB10094009807
:1017500008300190DDE9000100F021FDBDE8FC81C9
:10176000208800F08AFC60E000F0A9FC20805CE0AA
:10177000208800F05CFD58E000F0B6FC208054E0CA
:10178000208801124FF49850FFF7D2FB21784FF4D4
:10179000A050FFF7CDFB48E04FF4A050FFF748FB07
:1017A00007464FF49850FFF743FB07EB00202080DB
:1017B0003BE01F48807820701D48C07860701C484E
:1017C0000079A0701A484079E0701948807920713A
:1017D0000020607129E000F01EFE26E0204600F0A7
:1017E00034FE22E0204600F0BFFD1EE01DE0207820
:1017F00000F057FEB2E700F0FFFDC5B268B2401C32
:1018000010B94FF0FF30A9E725700EE000F0E8FDB9
:10181000C5B268B2401C18B94FF0FF309EE701E036
:10182000257002E04FF0FF3098E700BF002095E7F9
:101830002400002070B504460D4600BF4021054835
:10184000FFF7ACF80028F9D0A1B20248FFF720F961
:10185000204670BD0038014070B5044600250026C2
:1018600000BFA100491C4FF4185202EBC100FFF762
:10187000DFFA0646A100491C4FF4185202EBC101E1
:1018800001F58070FFF7D4FA00EB062086B2AEB106
:10189000A100491C4FF4185202EBC100FFF7C8FA2F
:1018A0000546A100491C4FF4185202EBC10101F595
:1018B0008070FFF7BDFA00EB052085B2B542D0D1AC
:1018C000284670BD70B504460025002600BFA10063
:1018D000491C4FF4005202EBC100FFF7A9FA06467B
:1018E000A100491C4FF4005202EBC10101F58070C8
:1018F000FFF79EFA00EB062086B2AEB1A100491CAC
:101900004FF4005202EBC100FFF792FA0546A10026
:10191000491C4FF4005202EBC10101F58070FFF742
:1019200087FA00EB052085B2B542D0D1284670BDBC
:1019300001210846FEF75EFE01213A48FEF7F6FD5A
:10194000FEF7E6FF38A0FFF771FB3AA0FFF76EFB4A
:101950003DA0FFF76BFBFFF7BFF8FFF79FF8FFF71E
:10196000C1F85DE04FF44270FFF762FA30B113281E
:101970000CD017281CD01C2851D14CE03748028BC2
:1019800020230121002000F025FA48E034A0FFF7D1
:101990004DFB3248028B811D0020FFF7E9FD044614
:1019A000214632A0FFF742FB3148FEF755FC36E0F6
:1019B0004FF40270FFF73CFA00F0010038B12DA09F
:1019C000FFF734FB01214FF40270FFF7B1FA00205A
:1019D000FFF742FF2B49A1F880040846B0F88004C5
:1019E000022817DD0846B0F88024002000F060F8D7
:1019F000244925A0FFF71AFB09222AA1002000F0A4
:101A000029F94FF490611F48FEF7B5FB00201D49EE
:101A1000A1F8800403E00020FFF75AFD00BF00BFDB
:101A2000A0E7000000023000BDF0B3C8D6C7C4DC98
:101A30000D0A00007777772E6A637A6E6564752EDB
:101A4000636F6D0D0A000000B4AEBFDAB3F5CABC17
:101A5000BBAFB3C9B9A60D0A0000000056000020B4
:101A6000436F6E6E6563740D0A00000025640A0002
:101A700040420F00436F6E6E656374206F6B0D0AFA
:101A800000000000A0000020676574207735353025
:101A90003020646174613A2A0D0A25730D0A2A0DFB
:101AA0000A000000BDF0B3C8D6C7C4DC00000000C7
:101AB0002DE9F0470446884616460027002500BF5A
:101AC000082C02DD681EBDE8F08700BF00BFA10042
:101AD000491C002202EBC100FFF7AAF900F00F0039
:101AE000012802D06FF00400EDE700BF00BF16B977
:101AF0006FF00D00E7E700BFA100491C4FF4F05262
:101B000002EBC100FFF794F94FF6FF7101EA80255F
:101B1000B54200DA2E4638E02046FFF79DFE054626
:101B2000A100491C4FF4407202EBC100FFF780F99D
:101B30000746172F1ED01C2F16D105B126E02046D0
:101B4000FFF7C0FE8146A100491C4FF4F85202EB9A
:101B5000C100FFF76DF9B9EB802F0BD12046FFF7DD
:101B6000B7FC6FF00600AEE72046FFF7B1FC6FF060
:101B70000600A8E70120A04014490988084010B1D8
:101B80000DB900209FE705B100E0C5E700BFB542F1
:101B900000DA2E4632464146204600F0E5F9A10023
:101BA000491C4FF4807202EBC1004021FFF7C0F9DD
:101BB00000BFA100491C4FF4807202EBC100FFF787
:101BC00037F90028F5D130467DE7000016000020E7
:101BD00000B131B9054A064BDA60064B044A13617D
:101BE00002E0034AD060116170470000B72000088E
:101BF00024000020B920000800B131B9054A064B85
:101C00005A61064B044A936102E0034A50619161B4
:101C100070470000BD20000824000020BB20000801
:101C200000BF094A128802F40072002AF9D000B1FC
:101C300031B9064A044BDA61054B034A136202E0EC
:101C4000014AD0611162704724000020F12200088F
:101C5000F52200082DE9F041044688461546002685
:101C6000002700BF082C02DD701EBDE8F08100BF18
:101C700000BFA100491C002202EBC100FFF7D8F809
:101C800000F00F00012802D06FF00400EDE700BF64
:101C900000BF15B96FF00D00E7E700BFA100491CB8
:101CA0004FF4407202EBC100FFF7C2F80646172E50
:101CB00004D01C2E02D06FF00600D6E70120A04011
:101CC00042490988084040B3A100491C4FF4007202
:101CD00002EBC100FFF7ACF800F01F0606F01000A1
:101CE00080B1A100491C4FF4007202EBC100102129
:101CF000FFF71EF90120A040344909888143334889
:101D000001800AE006F0080028B12046FFF7E0FB5A
:101D10006FF00C00A9E70020A7E7A100491C4FF4D1
:101D2000F85202EBC100FFF783F84FF6FF7101EAAA
:101D30008027BD4200DD3D4623E02046FFF7C2FD7F
:101D40000746A100491C4FF4407202EBC100FFF7A7
:101D50006FF80646172E07D01C2E05D02046FFF739
:101D6000B7FB6FF0060080E70120A0401849098802
:101D7000084018B1BD4201DD002076E7BD4200DC1D
:101D800000E0DAE700BF2A464146204600F02EF97F
:101D9000A100491C4FF4807202EBC1002021FFF723
:101DA000C7F800BFA100491C4FF4807202EBC100CC
:101DB000FFF73EF80028F5D10120A040034909882B
:101DC00008430249088028464FE700001800002019
:101DD00016000020F8B504460E4617461D4600BF03
:101DE000082C02DD4FF0FF30F8BD00BF012E06D0F9
:101DF000022E10D0032E10D0042E0FD10CE004229E
:101E000069464FF47060FFF74DF8009810B96FF015
:101E10000200E9E705E000BF00BF02E06FF0040048
:101E2000E2E700BF05F0040010B16FF00500DBE74A
:101E300005B3012E02D0022E1AD106E005F02100D2
:101E400010B96FF00500CFE713E005F0200028B1CE
:101E500005F0800010B96FF00500C5E705F010002F
:101E600028B105F0800010B96FF00500BCE700E074
:101E700000BF00BF2046FFF72BFB05F0F00242EA4F
:101E80000601A200521C002303EBC200FFF750F82A
:101E90007FB9304807880088401C2E4908800846D2
:101EA00000884FF6F071884203D14FF44040294931
:101EB00008803912A200521C4FF4806303EBC20069
:101EC000FFF736F8F9B2A200521C4FF4806303EB1F
:101ED000C20202F58070FFF72BF8A100491C4FF4F5
:101EE000807202EBC1000121FFF722F800BFA100C0
:101EF000491C4FF4807202EBC100FEF799FF0028E5
:101F0000F5D10120A040144909888143124801807D
:101F100005F00100A0401049098808430E490880D7
:101F20000120A0400D49098881430C480180002010
:101F30000B4921F814000B49085500BFA100491CAA
:101F40004FF4407202EBC100FEF772FF0028F5D09B
:101F500060B249E71400002016000020180000209D
:101F6000900000201A0000202DE9F04704460F469B
:101F700016460025A8460EB9BDE8F087A100491C09
:101F80004FF4205202EBC10101F58070FEF750FFC3
:101F90008146A100491C4FF4205202EBC100FEF71C
:101FA00047FF09EB002085B22902A000C01C01EB0D
:101FB000C008324639464046FEF774FFA81985B27C
:101FC0002912A200521C4FF4205303EBC200FEF76B
:101FD000AFFFE9B2A200521C4FF4205303EBC20240
:101FE00002F58070FEF7A4FF00BFC5E72DE9F047BA
:101FF00004460F4616460025A8460EB9BDE8F087F0
:10200000A100491C4FF4105202EBC10101F5807090
:10201000FEF70EFF8146A100491C4FF4105202EB5F
:10202000C100FEF705FF09EB002085B22902A000E0
:10203000801C01EBC008324639464046FEF7B2FF2D
:10204000A81985B22912A200521C4FF4105303EBB9
:10205000C200FEF76DFFE9B2A200521C4FF410530C
:1020600003EBC20202F58070FEF762FF00BFC5E716
:102070000146087870470170704770B50546ECB2AC
:102080002E1204F0F0014FF4A850FEF751FF002487
:102090000EE00120A040304040B1A100491C4FF4A7
:1020A000007202EBC1001F21FEF742FF601CC4B2A8
:1020B000082CEEDB70BD704770477047704770B5F5
:1020C0000026002400254FF4A850FEF7B1FE00F0D2
:1020D000F0064FF4B850FEF7ABFE0446254606EB7B
:1020E000052085B2284670BD70B500260024002565
:1020F0004FF4B050FEF79CFE06464FF4C050FEF77A
:1021000097FE0446254606EB052085B2284670BD9D
:1021100010B50446062221464FF41060FEF7C2FEB9
:10212000042204F10E019001FEF7BCFE042204F12A
:102130000A014FF4A060FEF7B5FE0422A11D4FF482
:102140007060FEF7AFFE07480078A074054841783C
:10215000E17481782175C178617503480078A075B4
:1021600010BD0000500000205400002010B50020D9
:10217000FEF75EFE10BD70B504464FF4D850FEF772
:1021800057FE20704FF4D050FEF752FE05464FF434
:10219000C850FEF74DFE05EB0020608070BD2DE9B4
:1021A000F04105460E46002700F0A5F8F5B100BF46
:1021B00000240AE0285D384447B2102F03DD4FF0B9
:1021C000FF30BDE8F081601C44B2082CF2DB002433
:1021D0000AE0295DA200521C4FF4F85303EBC20041
:1021E000FEF7A6FE601C44B2082CF2DBEEB100271D
:1021F000002409E0305D384447B2102F02DD4FF073
:10220000FF30DEE7601C44B2082CF3DB00240AE058
:10221000315DA200521C4FF4F05303EBC200FEF7F5
:1022200087FE601C44B2082CF2DB0020C9E770B5C1
:102230000446E5B2261229464FF4B050FEF778FE68
:1022400031464FF4C050FEF773FE70BD10B5044622
:10225000062221464FF41060FEF7A4FE042204F18A
:102260000E019001FEF79EFE042204F10A014FF4D4
:10227000A060FEF797FE0422A11D4FF47060FEF7E8
:1022800091FEA07C05490870E07C4870207D887034
:10229000607DC870A07D0249087010BD500000200C
:1022A0005400002070B50446002524F03A0008B11F
:1022B000681E70BD0020FEF7BBFD0546254329467C
:1022C0000020FEF735FE0020F3E710B50446217824
:1022D0004FF4D850FEF72CFE608801124FF4C8501E
:1022E000FEF726FEA1784FF4D050FEF721FE10BD78
:1022F00000207047704700B585B0062269464FF44C
:102300001060FEF7CFFD042204A99001FEF7CAFD7C
:10231000042203A94FF4A060FEF7C4FD042202A921
:102320004FF47060FEF7BEFD80210020FEF700FE36
:102330000020FEF77DFD062269464FF41060FEF78F
:1023400031FE042204A99001FEF72CFE042203A909
:102350004FF4A060FEF726FE042202A94FF470603D
:10236000FEF720FE05B000BD70B5044600254FF411
:102370003850FEF75DFD0546C5F38010207005F06E
:102380003800202802D0382803D100BF0120607017
:1023900002E00020607000BF00BF05F03800102888
:1023A00005D0182802D0202804D100BF00BF01208A
:1023B000A07002E00020A07000BF00BF05F0380050
:1023C000082805D0182802D0202804D100BF00BF5B
:1023D0000120E07002E00020E07000BF00BF70BD8F
:1023E00010B500244FF43850FEF722FD00F0010034
:1023F00000B10124204610BD10B500244FF4385020
:10240000FEF716FD00F03800302801D1012400E06D
:102410000024204610BD10B54FF43850FEF708FDDB
:10242000044624F0800421464FF43850FEF780FD26
:102430004FF43850FEF7FCFC044644F0800421467B
:102440004FF43850FEF774FD10BD70B505460024FA
:102450002878012802D144F0400401E024F040042F
:102460006878012802D144F0380412E0E8780128A5
:1024700008D1A878012802D144F0180409E044F0FA
:10248000080406E0A878012802D144F0100400E016
:1024900000BF21464FF43850FEF74AFDFFF7BBFF5F
:1024A00070BD70B5054600244FF43850FEF7C0FCEF
:1024B000044604F0400010B94FF0FF3070BD24F026
:1024C0003804012D02D144F0300401E044F0380416
:1024D00021464FF43850FEF72BFDFFF79CFF4FF4D9
:1024E0003850FEF7A5FC0446012D04D104F030005D
:1024F00030B10020E2E704F0380008B10020DDE749
:102500004FF0FF30DAE7000002020202020202028C
:102510000202020202020202382500080000002026
:10252000900000004C100008C82500089000002012
:10253000980800005C10000800000000010203047D
:1025400001020304060708090204060800C000008F
:1025500000000000000000000000000001025735EC
:102560003530300000000000B7200008B920000816
:10257000BD200008BB20000871200008772000085B
:10258000000000000000000000000000000000004B
:1025900000000000C0A88901000000000000000049
:1025A0000000000000000F276014B3791066C0A877
:1025B0008964FFFFFF00C0A88901B44C4C4C0200A5
:0825C000B6220000000000003B
:0400000508000131BD
:00000001FF
